:020000040800F2
:1000000000500020052B000881F0004102E000BFF5
:1000100083F0004330B54FEA41044FEA430594EAC8
:10002000050F08BF90EA020F1FBF54EA000C55EA03
:10003000020C7FEA645C7FEA655C00F0E2804FEAD4
:100040005454D4EB5555B8BF6D420CDD2C4480EAB6
:10005000020281EA030382EA000083EA010180EAE6
:10006000020281EA0303362D88BF30BD11F0004F34
:100070004FEA01314FF4801C4CEA113102D040426A
:1000800061EB410113F0004F4FEA03334CEA1333A5
:1000900002D0524263EB430394EA050F00F0A780BD
:1000A000A4F10104D5F1200E0DDB02FA0EFC22FAB8
:1000B00005F2801841F1000103FA0EF2801843FAAC
:1000C00005F359410EE0A5F120050EF1200E012A9D
:1000D00003FA0EFC28BF4CF0020C43FA05F3C018DB
:1000E00051EBE37101F0004507D54FF0000EDCF154
:1000F000000C7EEB00006EEB0101B1F5801F1BD3FD
:10010000B1F5001F0CD349085FEA30004FEA3C0C00
:1001100004F101044FEA445212F5800F80F09A80F6
:10012000BCF1004F08BF5FEA500C50F1000041EBFA
:10013000045141EA050130BD5FEA4C0C404141EBFE
:10014000010111F4801FA4F10104E9D191F0000F25
:1001500004BF01460020B1FA81F308BF2033A3F1A8
:100160000B03B3F120020CDA0C3208DD02F1140C9F
:10017000C2F10C0201FA0CF021FA02F10CE002F1DA
:100180001402D8BFC2F1200C01FA02F120FA0CFCD3
:10019000DCBF41EA0C019040E41AA2BF01EB04511C
:1001A000294330BD6FEA04041F3C1CDA0C340EDC1A
:1001B00004F11404C4F1200220FA04F001FA02F35D
:1001C00040EA030021FA04F345EA030130BDC4F11B
:1001D0000C04C4F1200220FA02F001FA04F340EA10
:1001E0000300294630BD21FA04F0294630BD94F0C1
:1001F000000F83F4801306BF81F480110134013DA8
:100200004EE77FEA645C18BF7FEA655C29D094EA18
:10021000050F08BF90EA020F05D054EA000C04BF96
:100220001946104630BD91EA030F1EBF0021002081
:1002300030BD5FEA545C05D14000494128BF41F020
:10024000004130BD14F580043CBF01F5801130BD84
:1002500001F0004545F0FE4141F470014FF000000F
:1002600030BD7FEA645C1ABF194610467FEA655CC0
:100270001CBF0B46024650EA013406BF52EA033562
:1002800091EA030F41F4002130BD00BF90F0000F50
:1002900004BF0021704730B54FF4806404F132048C
:1002A0004FF000054FF0000150E700BF90F0000F45
:1002B00004BF0021704730B54FF4806404F132046C
:1002C00010F0004548BF40424FF000013EE700BF3C
:1002D00042004FEAE2014FEA31014FEA02701FBFCC
:1002E00012F07F4393F07F4F81F06051704792F09E
:1002F000000F14BF93F07F4F704730B54FF4607418
:1003000001F0004521F0004120E700BF50EA010262
:1003100008BF704730B54FF000050AE050EA01020F
:1003200008BF704730B511F0004502D5404261EB7F
:1003300041014FF4806404F132045FEA915C3FF4C0
:10034000DCAE4FF003025FEADC0C18BF03325FEA59
:10035000DC0C18BF033202EBDC02C2F1200300FA0E
:1003600003FC20FA02F001FA03FE40EA0E0021FA33
:1003700002F11444C1E600BF70B54FF0FF0C4CF41D
:10038000E06C1CEA11541DBF1CEA135594EA0C0FD3
:1003900095EA0C0F00F0DEF82C4481EA030621EA0E
:1003A0004C5123EA4C5350EA013518BF52EA033549
:1003B00041F4801143F4801338D0A0FB02CE4FF0FB
:1003C0000005E1FB02E506F00042E0FB03E54FF02B
:1003D0000006E1FB03569CF0000F18BF4EF0010E23
:1003E000A4F1FF04B6F5007F64F5407404D25FEA1F
:1003F0004E0E6D4146EB060642EAC62141EA5551D2
:100400004FEAC52040EA5E504FEACE2EB4F1FD0C13
:1004100088BFBCF5E06F1ED8BEF1004F08BF5FEA91
:10042000500E50F1000041EB045170BD06F0004643
:1004300046EA010140EA020081EA0301B4EB5C04F0
:10044000C2BFD4EB0C0541EA045170BD41F48011E8
:100450004FF0000E013C00F3AB8014F1360FDEBF0D
:10046000002001F0004170BDC4F10004203C35DAE9
:100470000C341BDC04F11404C4F1200500FA05F36C
:1004800020FA04F001FA05F240EA020001F000420D
:1004900021F0004110EBD37021FA04F642EB060183
:1004A0005EEA430E08BF20EAD37070BDC4F10C04AD
:1004B000C4F1200500FA04F320FA05F001FA04F271
:1004C00040EA020001F0004110EBD37041F100015D
:1004D0005EEA430E08BF20EAD37070BDC4F1200568
:1004E00000FA05F24EEA020E20FA04F301FA05F2D0
:1004F00043EA020321FA04F001F0004121FA04F278
:1005000020EA020000EBD3705EEA430E08BF20EA47
:10051000D37070BD94F0000F0FD101F00046400081
:1005200041EB010111F4801F08BF013CF7D041EA03
:10053000060195F0000F18BF704703F00046520007
:1005400043EB030313F4801F08BF013DF7D043EAD8
:100550000603704794EA0C0F0CEA135518BF95EA8E
:100560000C0F0CD050EA410618BF52EA4306D1D115
:1005700081EA030101F000414FF0000070BD50EA34
:10058000410606BF1046194652EA430619D094EABE
:100590000C0F02D150EA013613D195EA0C0F05D1A8
:1005A00052EA03361CBF104619460AD181EA0301FC
:1005B00001F0004141F0FE4141F470014FF00000B4
:1005C00070BD41F0FE4141F4780170BD70B54FF04F
:1005D000FF0C4CF4E06C1CEA11541DBF1CEA1355CF
:1005E00094EA0C0F95EA0C0F00F0A7F8A4EB0504B1
:1005F00081EA030E52EA03354FEA013100F08880A8
:100600004FEA03334FF0805545EA131343EA126370
:100610004FEA022245EA111545EA10654FEA002625
:100620000EF000419D4208BF964244F1FD0404F5DE
:10063000407402D25B084FEA3202B61A65EB03053A
:100640005B084FEA32024FF480104FF4002CB6EBF7
:10065000020E75EB030E22BFB61A754640EA0C0077
:100660005B084FEA3202B6EB020E75EB030E22BFB7
:10067000B61A754640EA5C005B084FEA3202B6EBF8
:10068000020E75EB030E22BFB61A754640EA9C00B7
:100690005B084FEA3202B6EB020E75EB030E22BF87
:1006A000B61A754640EADC0055EA060E18D04FEA45
:1006B000051545EA16754FEA06164FEAC30343EAE5
:1006C00052734FEAC2025FEA1C1CC0D111F4801FB2
:1006D0000BD141EA00014FF000004FF0004CB6E7AB
:1006E00011F4801F04BF01430020B4F1FD0C88BF4A
:1006F000BCF5E06F3FF6AFAEB5EB030C04BFB6EB55
:10070000020C5FEA500C50F1000041EB045170BD47
:100710000EF0004E4EEA113114EB5C04C2BFD4EB74
:100720000C0541EA045170BD41F480114FF0000EF8
:10073000013C90E645EA060E8DE60CEA135594EA74
:100740000C0F08BF95EA0C0F3FF43BAF94EA0C0F77
:100750000AD150EA01347FF434AF95EA0C0F7FF4EC
:1007600025AF104619462CE795EA0C0F06D152EA40
:1007700003353FF4FDAE1046194622E750EA410624
:1007800018BF52EA43067FF4C5AE50EA41047FF435
:100790000DAF52EA43057FF4EBAE12E74FF0FF3C9A
:1007A00006E000BF4FF0010C02E000BF4FF0010C6B
:1007B0004DF804CD4FEA410C7FEA6C5C4FEA430CE4
:1007C00018BF7FEA6C5C1BD001B050EA410C0CBF33
:1007D00052EA430C91EA030F02BF90EA020F002095
:1007E000704710F1000F91EA030F58BF994208BFFC
:1007F00090422CBFD8176FEAE37040F001007047B9
:100800004FEA410C7FEA6C5C02D150EA013C07D10F
:100810004FEA430C7FEA6C5CD6D152EA033CD3D05A
:100820005DF8040B704700BF8446104662468C4654
:100830001946634600E000BF01B5FFF7B7FF002887
:1008400048BF10F1000F01BD4DF808EDFFF7F4FFB0
:100850000CBF012000205DF808FB00BF4DF808ED3B
:10086000FFF7EAFF34BF012000205DF808FB00BF5E
:100870004DF808EDFFF7E0FF94BF012000205DF880
:1008800008FB00BF4DF808EDFFF7CEFF94BF012035
:1008900000205DF808FB00BF4DF808EDFFF7C4FF2E
:1008A00034BF012000205DF808FB00BF4FEA410281
:1008B00012F5001215D211D56FF47873B3EB6252B2
:1008C00012D94FEAC12343F0004343EA505311F0D9
:1008D000004F23FA02F018BF404270474FF000006B
:1008E000704750EA013005D111F0004008BF6FF0A9
:1008F000004070474FF00000704700BF4A0011D21F
:1009000012F5001211D20DD56FF47873B3EB625269
:100910000ED44FEAC12343F0004343EA505323FA75
:1009200002F070474FF00000704750EA013002D1EA
:100930004FF0FF3070474FF0000070474FEA410220
:10094000B2F1E04324BFB3F5001CDCF1FE5C0DD92D
:1009500001F0004C4FEAC0024CEA5070B2F1004F77
:1009600040EB830008BF20F00100704711F0804F7A
:1009700021D113F13872BCBF01F00040704741F43F
:1009800080114FEA5252C2F11802C2F1200C10FA43
:100990000CF320FA02F018BF40F001004FEAC12327
:1009A0004FEAD32303FA0CFC40EA0C0023FA02F3CB
:1009B0004FEA4303CCE77FEA625307D150EA0133A1
:1009C0001EBF4FF0FE4040F44000704701F0004071
:1009D00040F0FE4040F40000704700BF4BB942B900
:1009E000002908BF002802D04FF0FF31084600F070
:1009F0003BB882B0EC462DE9005000F01DF8DDF860
:100A000004E002B00CBC70472DE9F0411646984650
:100A100004460D4600F02AF806FB01FCA6FB002365
:100A200000FB08C7FB18A21A65EB0303069CC4E988
:100A30000023BDE8F08100BF2DE9F0419046064655
:100A40000F461D4600F070F900FB05F3A0FB0845BA
:100A500008FB0138069B4544341B67EB0505C3E9D9
:100A60000045BDE8F08100BF704700BF00292DE9B7
:100A7000F00F1D46C0F29D800024002DC0F294802E
:100A800080460F4694461E46E3BB8A4255D9B2FAC9
:100A900082F747B1C7F1200520FA05F601FA07F100
:100AA000BA40B8403143170CB1FBF7F61FFA82FC8D
:100AB00007FB16110CFB06F5030C43EA01439D42AC
:100AC00008D9711E9B1880F013819D4240F210815D
:100AD000023E9B18591BB1FBF7F507FB15130CFBE6
:100AE00005FC80B240EA03418C4507D96B1E8A1889
:100AF00080F00081944540F2FD80023D45EA0641C8
:100B0000002503E08B420CD9002529460A462B46D6
:100B100014B1524263EB430310461946BDE8F00F8F
:100B20007047B3FA83F5002D40F087808B4201D3E4
:100B30008242EAD800250121E8E712B90126B6FB76
:100B4000F2F2B2FA82F6002E39D18E1A130C1FFA85
:100B500082FC0125B6FBF3F703FB17610CFB07F8DA
:100B60004FEA104949EA0146B04506D9791EB61840
:100B700002D2B04500F2D3800F46C8EB0606B6FBA2
:100B8000F3F103FB11630CFB01FC80B240EA034369
:100B90009C4506D94E1E9A1802D2944500F2C28096
:100BA000314641EA0741B1E7E443524263EB430374
:100BB00066E7404261EB41014FF0FF345DE7B24030
:100BC000C6F1200921FA09F720FA09F901FA06F11C
:100BD000130CB7FBF3F81FFA82FC03FB18770CFB2E
:100BE00008F549EA01094FEA194141EA0747B040CF
:100BF000BD420AD9BF1808F1FF3680F08E80BD4291
:100C000040F28B80A8F10208BF18791BB1FBF3F505
:100C100003FB15170CFB05F61FFA89F949EA074192
:100C20008E4206D96F1E891871D28E426FD9023D4D
:100C300089188E1B45EA08458CE7C5F1200122FA88
:100C400001F306FA05F627FA01F207FA05F720FA8A
:100C500001F11E434FEA1649B2FBF9F81FFA86FA72
:100C600009FB18220AFB08FB0F433B0C43EA024234
:100C700093450CFA05FC08D9921908F1FF314AD2C4
:100C8000934548D9A8F102089219CBEB0203B3FBB4
:100C9000F9F109FB11320AFB01FABFB247EA02433C
:100CA0009A4506D94A1E9B1933D29A4531D9023941
:100CB0009B1941EA08410F0C1FFA8CF808FB07F654
:100CC0008AB24FEA1C4C08FB02F80CFB02620CFBD8
:100CD00007FC02EB1842964288BF0CF5803CCAEB39
:100CE00003030CEB124C63450ED305D000250DE732
:100CF0000E46EFE61D4601E700FA05F01FFA88F8F8
:100D000008EB0245A842F1D201390025FEE63D4636
:100D10008FE71146CDE78846B7E7B04675E7023F53
:100D2000B6182AE702393CE72DE9F00714460546D4
:100D30000E46002B3DD18A4249D9B2FA82F747B11B
:100D4000C7F1200120FA01F206FA07F6BC40BD40C7
:100D50001643220CB6FBF2F0A1B202FB106601FBB7
:100D600000F32F0C47EA0646B34208D9471E36194E
:100D700080F0FA80B34240F2F78002383619F61A52
:100D8000B6FBF2F302FB136201FB03F1ADB245EADD
:100D90000242914207D95E1E121980F0E78091420B
:100DA00040F2E480023B43EA00400021BDE8F00746
:100DB00070478B4243D8B3FA83F4002C42D18B4264
:100DC00002D3824200F2E18000210120EEE712B955
:100DD0000127B7FBF2F4B4FA84F2002A40F08980CC
:100DE0000A1B230CA7B20121B2FBF3F603FB162268
:100DF00007FB06F04FEA154C4CEA0242904207D935
:100E0000121906F1FF3C02D2904200F2D0806646F1
:100E1000121AB2FBF3F003FB102307FB00F7ADB28D
:100E200045EA03439F4207D9421E1B1980F0A08068
:100E30009F4240F29D80023840EA0640B6E700211A
:100E40000846B3E7C4F1200622FA06F703FA04F3D2
:100E500021FA06F501FA04F120FA06F63B434FEABF
:100E6000134CB5FBFCF71FFA83F80CFB175508FB76
:100E700007F946EA010A4FEA1A4141EA0545A94540
:100E800002FA04F204D97E1EED18C0F081803746C4
:100E9000C9EB0501B1FBFCF60CFB161508FB06F8C7
:100EA0001FFA8AFA4AEA0541884503D9751EC9180E
:100EB00074D32E4646EA0746370C1FFA82FC0CFB19
:100EC00007F5120CB3B20CFB03FC02FB035302FB4D
:100ED00007F203EB1C439D4288BF02F58032C8EB4A
:100EE000010102EB134291424CD343D03046002122
:100EF0005CE79440C2F1200521FA05F620FA05F5D9
:100F000001FA02F1230CB6FBF3FCA7B203FB1C664B
:100F100007FB0CF829430D0C45EA0646B04500FADC
:100F200002F508D936190CF1FF303ED2B0453CD954
:100F3000ACF1020C3619C8EB0602B2FBF3F003FB6E
:100F4000102607FB00F889B241EA0642904506D90F
:100F5000461E121927D2904525D902381219C8EB1E
:100F6000020240EA0C413FE7384608E733461AE7F9
:100F7000104661E700FA04F01FFA8CFC0CEB034307
:100F80009842B3D2701E002110E7214620460DE79B
:100F9000A9457FF67CAF023FED1879E7884588D9EF
:100FA000023EC91886E73046D9E78446C3E7023EC9
:100FB00012192DE708B542F6F5730020C0F60003BC
:100FC000984708BD2DE9F04F194B83B0984700248E
:100FD00018488047184D0222184B4FF47A7120466A
:100FE0000094A8472046164988471648164A904755
:100FF00048F21F55DFF85C80144FDFF85C90DFF893
:101000005CA0C5F2EB156426C047B847A5FB0034C9
:10101000630906FB1304002CF6D12046C84783461B
:101020000120C8470A4903465A462046D047EBE705
:10103000D12B000861100008D9340008B50F000852
:10104000F9340008E8E10008752200080D350008B1
:10105000F4E1000829170008A93D0008251300083D
:1010600008B541F22923C0F60003984741F6F9007C
:10107000C0F60000804708BD08B542F6C1630146CE
:10108000C0F600030020984708BD00BFF8B51A4B12
:1010900004461A8890B23B2801D90021198018888B
:1010A0001988164A013180B289B20D2C1980145466
:1010B000114B10D012480178012900D0F8BD114D14
:1010C0002A68002AFAD0204690470D2CF6D12B68CA
:1010D0000A209847F2E71F880026BFB21146D6556E
:1010E000094A01251E80094B1570094A1D703046BA
:1010F000084B15709847DDE7D00E0020D40E002075
:10110000000A00201C0F0020100F0020D20E00202B
:10111000200F0020951700082DE9F007404F3B886D
:101120009BB2132B75D8B7F8009004781FFA89F991
:10113000002C72D00024631C9CB2035D002BFAD1FA
:10114000DFF8E0C004B32C2606FB09C6012390F8A3
:101150000080651EA34286F8008005EA030513D2CD
:1011600025B145780223A34275700DD210F803A073
:101170005D1C06F803A0023310F805A01FFA83F8DF
:10118000A04506F805A0F1D32C2000FB094400205F
:101190000CF80400B7F800800B781FFA88F8002BD1
:1011A00039D0013080B20C5C002CFAD1E8B12C258A
:1011B00005FB08C501230E78441E83422E7504EA00
:1011C000030412D224B14C78022383426C750CD2F2
:1011D000CE5CEC1826755E1C023311F80690AC1933
:1011E0009EB2864284F81490F2D339882C2303FBF4
:1011F00008C88CB203FB04CC398840444B1C99B21C
:1012000000230375CCF8282039800120BDE8F007C1
:1012100070470020FAE71846E7E7DFF808C0B3E7B1
:10122000180F0020240B0020F8B5194B002203F5FD
:101230005C709A6203F12C015833002483428A6265
:10124000F7D1144F144E3C80144F154D3C80154F70
:1012500015493C60154F164A3C70164F16483460CD
:101260003C70A8471549164A1648A8471649174A18
:101270001748A8471749184A1848A847184A9047D6
:10128000184B20461849194A33609047F8BD00BFF3
:10129000240B0020180F00201C0F0020D00E00206F
:1012A00019110008140F002014E20008D20E0020CB
:1012B000DD130008000A00200CE2000828E2000804
:1012C0005114000820E2000840E2000865150008FB
:1012D00038E2000850E20008ED14000848E2000877
:1012E00045170008791000088D1000089D2E000891
:1012F00038B5027892B10A4D441C07E0296814F809
:10130000010C01B1884714F8012B3AB10A2AF5D132
:101310002B680D20002BF6D09847EFE738BD00BFB3
:101320001C0F00200EB430B5B4B034AC3E2304F82A
:10133000C83D4022002814BF46234F23009009498E
:101340002046094DA84737AA52F8041B0DF10D009D
:10135000064B984720460649884734B0BDE83040E0
:1013600003B0704758E200084925000831280008FA
:10137000F11200080EB430B5B4B034AC3E2204F81B
:10138000C82D002814BF46234F2300900C49204647
:101390000C4DA84737AA52F8041B0B4B0DF10D005A
:1013A0009847204609498847094A0A4B0A490020BC
:1013B00010701870087034B0BDE8304003B070474A
:1013C00058E200084925000831280008F1120008F9
:1013D000D20E0020100F0020200F00202DE9F04336
:1013E000134E9DB0338898B2C0B1124DDFF85890BB
:1013F000DFF8588000242C2707FB04F3E81814308A
:101400002A220D49EB18009003A8C84703A8C0473B
:1014100031880134A4B28AB29442EDD30748084916
:10142000084A002303700B7013701DB0BDE8F083F1
:10143000180F0020240B002064E20008D20E0020C8
:10144000100F0020200F002049250008F11200088D
:101450002DE9F043114DB3B02B8898B2A0B1DFF85D
:101460005490DFF854800E4F00242C262A2206FBCD
:1014700004930C496846C0476846B8472988013438
:10148000A4B28AB29442F1D307480849084A00231B
:1014900003700B70137033B0BDE8F083180F002099
:1014A000F112000874E20008D20E0020100F002094
:1014B000200F0020240B0020492500080FB400B5A0
:1014C000B3B034AA42F6310352F8041B6846C0F6A2
:1014D0000003984741F2F1216846C0F600018847B1
:1014E00033B05DF804EB04B0704700BF10B586B0B0
:1014F00008466A46104903AB104CA04703A81049A0
:101500000222104B984778B10F4B00221A700F48F7
:101510002A210F4A90470F490F4B104A00200870AC
:101520001870107006B010BD074B01221A700C48DD
:101530002A21074A9047EEE77CE200088559000817
:1015400084E20008215C0008000A002094E2000800
:10155000BD140008D20E0020100F0020200F002024
:1015600088E2000838B54EF2A025C0F6000541F229
:10157000BD44C0F6000428462A21A0474EF2D020E0
:10158000C0F600002A21A0474EF20030C0F600004D
:101590002A21A0474EF230302A21C0F60000A04791
:1015A00028462A21A04740F6D26040F6107140F646
:1015B00020730022C2F20000C2F20001C2F2000356
:1015C00002700A701A7038BD2DE9F04F93B072B6F0
:1015D0000DF10C0B594600204D4B984762B64D4813
:1015E000B0F800901FFA89F1019100297DD04A4A94
:1015F0004A4D4FF0000A14682E4657464FF02C080B
:101600003378002B7DD008FB0AF00023591C8BB2E5
:10161000C218A95C99460029F8D145F6C13358464D
:10162000C0F60003984780B2002849D09BF800100C
:10163000421E631893F801E090B20DF10D026FEABB
:101640000B0310180EF0030C1A18BCF1020F02F075
:1016500001020DF10D0350D0834203F8011C2FD07D
:1016600072B113F8011B04EB010E9EF8012002F089
:10167000030CBCF1020F42D0834203F8011C1FD0BF
:1016800013F8012BA11891F801E011460EF0030C9C
:10169000BCF1020F08BFA2F1200103F8011C13F8EE
:1016A000012BA11891F801E011460EF0030CBCF1DA
:1016B000020FE1D1A2F12001834203F8011CDFD126
:1016C00045F62143594608FB0A504A46C0F6000336
:1016D000984701B209B9B26AAAB90AF1010A019898
:1016E0001FFA8AF72C36B8428AD8FF200C490D4BD6
:1016F0009847002013B0BDE8F08F2039ACE72039BF
:10170000BAE7994689E7F8B2594690470120F1E7D0
:101710004D180008180F0020E4000020240B0020C2
:1017200078E200087513000808B50020034B9847BD
:1017300010B103488047012008BD00BF5D170008B5
:10174000C915000841F2900240F624730021C2F24C
:101750000002C2F2000311801980704740F6247223
:1017600041F29003C2F20002C2F2000332F91010FB
:1017700033F9102046F267608B1A591DC6F2666075
:1017800080FB0120CA17C2EB600303EB8300081A39
:10179000704700BF2DE9F007DFF8AC90284B39F80F
:1017A00010A0844633F910000FFA8AF2141A46F298
:1017B0006768661DC6F2666888FB0604F317C3EB0C
:1017C000640000EB8003F01A04280E4636D04FF474
:1017D000B47101FB0CF7C2EB021507EB8504194F3E
:1017E00030687168B268F3683C190FC4374657F81F
:1017F000100F25467968BA68FB680AF1010A0FC51F
:1018000057F8100F0FFA8AFAFB687968BA68203423
:101810000FC588FB0A3856F8300F4FEAEA72C2EB60
:1018200068037168B26803EB8308C8EB0A0A07C44F
:1018300029F81CA00120BDE8F00770470020FAE756
:1018400090100020280F0020240F0020DFF8A4C0F3
:10185000264B2DE9F0033CF81080064633F91000C2
:101860000FFA88F2841A46F26760631DC6F266605A
:1018700080FB0340DC17C4EB600000EB80001B1A08
:101880002FD04FF4B47505FB06F7C2EB0212184BCC
:1018900007EB82041F190D4607F130093C460FCCB7
:1018A00028606960AA60EB6010354C452746F5D189
:1018B00008F1010846F267610FFA88F0C6F2666126
:1018C00081FB00234FEAE072C2EB630101EB81036D
:1018D000C3EB000807CF022328606960AA602CF8D8
:1018E000168058B2BDE8F003704700BF240F0020F7
:1018F000280F00209010002008B54EF2603041F211
:1019000019134EF2683141F62112C0F60001C0F6FB
:101910000002C0F60003C0F60000984708BD00BFF3
:1019200070B5ADF5007D0846114B694698470198A2
:101930001049114A9047044630B1104DFF2010491C
:10194000A8470DF5007D70BD0E4E0298B0470546C4
:101950000398B0470C4B01B2064628B29847204680
:101960002A460A493346054DA8472046E7E700BF07
:101970009119000874E30008E55900087513000880
:1019800078E20008C5190008BD37000878E30008B0
:1019900070B500240D460C60084E0949B04750B19F
:1019A000043D45F8040F06490020B04701340028E3
:1019B000F7D1204670BD0446FBE700BF415D00083B
:1019C00080E3000810B403782D2B16D0A3F1300269
:1019D000092A10D800240246002000EB800003EB07
:1019E000400012F8013F3038A3F130010929F4D941
:1019F00054B910BC70470020FBE743780130A3F1D5
:101A00003001092902D900204042F2E70124E2E72F
:101A1000EFF308800046704770B50B4D06462C6802
:101A20007CB10A4B9847A119814202D8296020460F
:101A300070BD074880474FF0FF340C2202602046FB
:101A400070BD044C2C60ECE7040A0020111A000859
:101A5000795900085C1D002038B5094B05461978F6
:101A600051B1084A084914680868631C055509689B
:101A700013600022CA5438BD044B984738BD00BFDC
:101A80000C0A0020080A002098100020012F0008EE
:101A900038B548B141B1087830B1044D0C46A8477B
:101AA00014F8010F0028FAD138BD00BF591A0008F8
:101AB00030B4C8B10378CBB100230B60027892B187
:101AC000303AD4B2092C02D912E0092D10D803EB18
:101AD000830402EB44030B6010F8014FA4F13002C1
:101AE000D5B2002CF1D1012030BC70471846FBE77D
:101AF0000020F9E72DE9F04782460078002384B002
:101B0000B1F100080093BABFC8F100084FF0010915
:101B10009946002800F040810025642829D0A14E74
:101B20002C462F46A0F13102082A00F28E801AF8C6
:101B300004200AEB0401A2F1300009284FF0000351
:101B400001A809D8C25411F8012F0134A2F1300EB6
:101B50000133BEF1090FF5D904A9CA18694602F884
:101B60000C7C013CB04701341AF8040008B1642829
:101B7000D8D1B9F1000F40F00B818B4E00980028AE
:101B800067D0092800F3FF80441E811EC71E002C69
:101B900000F0048101F0010464234A1E71B124B1F4
:101BA000013A511C4FF47A7308D003EB8304E1002F
:101BB00001EB4403023A5B00511CF6D198FBF3F2AF
:101BC000022803FB128800F0EB8007F00100642478
:101BD000791E77B120B10139481C4FF47A7408D0CE
:101BE00004EB8407FC0004EB470302395C004F1C44
:101BF000F6D146F267674FF00109C6F266670FE05B
:101C0000012C15D0B9F1000F12D0302005B92020D9
:101C1000B04787FB0420E117C1EBA004002C11DDC5
:101C200098FBF4F2D0B2303004FB1288002AE7D0DF
:101C3000B04787FB0420E117C1EBA004002C4FF054
:101C40000009EDDC04B0BDE8F087302808BF0125AD
:101C500089E742F6A173C4F2B84383FB08244FEA34
:101C6000E8714FF44A42C1EB2470C3F69A3202FB8A
:101C70001088002800F09A80C0B243F689343030D2
:101C8000C5F2E654B04784FB08204FEAE8714FF4F0
:101C90006142C1EB6060C0F2F55202FB108430304B
:101CA000B0474CF66B23C6F65F3383FB0420E11785
:101CB00049F28062C1EBA050C0F2980202FB1044CE
:101CC0003030B0474DF68363C4F21B3383FB0420EE
:101CD000E11744F24022C1EBA040C0F20F0202FB28
:101CE00010443030B0474BF28953C1F2F84383FBC4
:101CF0000420E11748F2A062C1EB6030C0F201029B
:101D000002FB10443030B04748F6AD33C6F6DB0373
:101D100083FB0420E117C1EB203042F2107202FB7A
:101D200010443030B04744F6D353C1F2620383FB12
:101D30000420E117C1EBA0104FF47A7202FB1044AB
:101D40003030B04748F21F53C5F2EB1383FB042039
:101D5000E117C1EB6010642202FB10443030B04741
:101D600046F26763C6F2666383FB0420E117C1EBAA
:101D7000A00000EB8002A4EB42043030B04704F135
:101D80003000B0475EE7092000900627072101E7F1
:101D90002D20054EB047F1E60546EAE60A230DE799
:101DA0000A2426E7B11A0008591A000843F68933B5
:101DB000C5F2E65383FB08214FF461444FEAE87211
:101DC000C2EB6160C0F2F55404FB108400287FF47C
:101DD00066AF4CF66B20C6F65F3080FB042149F2FB
:101DE0008063E217C2EBA150C0F2980303FB1044DA
:101DF00000287FF465AF4DF68360C4F21B3080FB92
:101E0000042144F24023E217C2EBA140C0F20F03C9
:101E100003FB104400287FF464AF4BF28950C1F2F9
:101E2000F84080FB042148F2A063E217C2EB613066
:101E3000C0F2010303FB104400287FF463AF48F6AF
:101E4000AD30C6F6DB0080FB0421E217C2EB213087
:101E500042F2107303FB104400287FF462AF44F693
:101E6000D350C1F2620080FB0421E217C2EBA11043
:101E70004FF47A7303FB104400287FF461AF48F2FB
:101E80001F50C5F2EB1080FB0421E217C2EB61107A
:101E9000642303FB104400287FF460AF46F26760C0
:101EA000C6F2666080FB0421E217C2EBA10000EBE2
:101EB0008003A4EB430400283FF461AF5DE700BF5B
:101EC0002DE9F043037887B0002681460191029600
:101ED000002B00F0B780782B00F0B480B44F34466C
:101EE000B046A3F13102082A00F2A88019F80420B4
:101EF00009EB0401A2F13003092B03A84FF0000302
:101F000008D8C25411F8012F0134A2F13005013371
:101F1000092DF6D906A9CA1802A902F80C8C013CB1
:101F2000B847013419F804300BB1782BD9D1019995
:101F3000029B0ABA0192002B00F08780D80700F1BB
:101F40000F810121C3F1080202EBD2735A10032A58
:101F500000F3C98001ACA5182C4614F8010BEF431F
:101F6000030907F001090DF10808924D00F00F0771
:101F700000F03181092B40F26E8103F13700A84750
:101F80000021002F00F03081092F40F2528107F12B
:101F90003700A8470021444500F0A580B9F1000FA3
:101FA00017D014F8010B030900F00F0731D0092BEB
:101FB00040F2428103F13700A8470022A7B3092F5E
:101FC00040F23D8107F13700A8470021444500F069
:101FD0008A8014F8013B1A0903F00F0700F0D4803F
:101FE000092A88BF02F1370040F22C81A84700215E
:101FF000002F00F0D280092F88BF07F1370040F290
:102000002481A84714F8010B0021030900F00F07F1
:10201000CDD1002900F01081002E40F0CD8020208D
:10202000A8470122002FCAD1002A00F00881002E03
:1020300040F0BA802020A8470121C7E7302B08BF15
:1020400001266EE7019C25BA01959DF804301A0916
:1020500003F00F044AD0092A40F2FA8002F1370057
:10206000544DA8470021002C44D10122002900F042
:10207000FB809DF80530190903F00F0447D00929AA
:1020800040F2EC8001F13700A8470023002C44D136
:102090000122002B00F0E5809DF806100B0901F0ED
:1020A0000F0447D0092B40F2BE8003F13700A84748
:1020B0000021002C43D10122002900F0B7809DF8B7
:1020C0000730190903F00F0445D0092988BF01F131
:1020D000370042D9A847002C7AD0092C88BF04F1D8
:1020E000370075D9A84707B0BDE8F0830121314D0D
:1020F000002CBAD0092C40F2B78004F13700A84771
:102100009DF805300022190903F00F04B7D1002A09
:1021100000F0A4800123002CBAD0092C40F2A18049
:1021200004F13700A8479DF8061000220B0901F0C2
:102130000F04B7D1002A76D00121002CBBD0092C86
:1021400074D904F13700A8479DF807300022190917
:1021500003F00F04B9D1002ABDD101F13000B9E775
:10216000D843083000EBD07306AA02EB630111F8E4
:10217000140C10F00F0345D0092B51D903F137008F
:102180000C4B9847002142E000295BD0E6B130209B
:10219000A8470121002F7FF42EAF002955D07EB132
:1021A0003020A8470121FCE63020A84701210DE797
:1021B000B11A0008591A00083020A8470122FDE68C
:1021C0002020A8470121ECE62020A84701210FE7A5
:1021D00004F1300086E700293DD07EB13020A847C9
:1021E0000121002F7FF4D0AE19B31EB13020A847D3
:1021F0000121D0E62020A8470121CCE62020A847D5
:102200000121BEE63EB11A493020884701210298DB
:10221000431E029396E62020154A90470121F6E7D7
:1022200003F13000ACE703F1300040E704F1300087
:1022300089E707F13000ACE603F13000BCE607F1B6
:102240003000C1E602F13000D0E607F13000D8E6F8
:1022500002F1300004E703F1300090E601F13000B4
:1022600012E704F130005DE704F1300047E700BFFA
:10227000591A00080FB42DE9F04385B00DF130096B
:10228000AC4B002259F8044BAB4DDFF8B882AB4F92
:10229000AB4E1A702078002800F0BE80252840F050
:1022A000C0806278631CA2F1630101298DF80400EB
:1022B00040F2D680782A00F0DD80732A00F0DD80BD
:1022C000252A00F0DD80A1788DF80520A1F16302B8
:1022D000A31C012A40F2D680782900F0D680732909
:1022E00000F0D680252900F0D680E2788DF806101F
:1022F000A2F16301E31C012940F2CF80782A00F0AB
:10230000CF80732A00F0CF80252A00F0CF8021797A
:102310008DF80720A1F16302231D012A40F2C88035
:10232000782900F0C880732900F0C880252900F0C2
:10233000C88062798DF80810A2F16301631D01293C
:1023400040F2C180782A00F0C180732A00F0C18079
:10235000252A00F0C180A1798DF80920A1F163023E
:10236000A31D012A40F2BA80782900F0BA807329AF
:1023700000F0BA80252900F0BA80E2798DF80A10C1
:10238000A2F16301E31D012940F2B380782A00F035
:10239000B380732A00F0B380252A00F0B380217A3D
:1023A0008DF80B20A1F16302012A04F1080340F229
:1023B000AB80782900F0AB80732900F0AB80252931
:1023C00000F0AB80627A8DF80C10A2F16301012954
:1023D00004F1090340F2A380782A00F0A380732A55
:1023E00000F0A380252A00F0A380A07A8DF80D20AC
:1023F00004F10A035C1C64282BD015D825281FD0B3
:1024000063287FF447AF99F80000A847207809F1C6
:10241000040900287FF442AF05B0BDE8F04304B0E2
:102420007047A847013435E773280BD078287FF42C
:1024300031AFD9F8001001A809F10409B04729E724
:10244000A84727E7D9F8001001A809F10409B847FF
:1024500020E7D9F8001001A809F10409C04719E7DD
:102460001046012404AA1419002104F80C0C04F8E5
:102470000B1CBFE701247820F4E701247320F1E767
:102480000124EFE708460224ECE702247820E9E77C
:1024900002247320E6E70224E4E710460324E1E780
:1024A00003247820DEE703247320DBE70324D9E745
:1024B00008460424D6E704247820D3E704247320B4
:1024C000D0E70424CEE710460524CBE70524782086
:1024D000C8E705247320C5E70524C3E7084606249A
:1024E000C0E706247820BDE706247320BAE7062457
:1024F000B8E710460724B5E707247820B2E7072499
:102500007320AFE70724ADE708460824AAE70824AC
:102510007820A7E708247320A4E70824A2E7104640
:1025200009249FE7092478209CE70924732099E770
:10253000092497E70C0A0020591A0008911A00088C
:10254000C11E0008F51A00080EB42DE9F043B14988
:10255000B14D84B00DF12C09B04B08600020012270
:10256000286059F8044BAE4DDFF8C082AD4FAE4E37
:102570001A702078002800F0BE80252840F0C08026
:102580006278631CA2F1630101298DF8040040F216
:10259000D680782A00F0DD80732A00F0DD80252ABD
:1025A00000F0DD80A1788DF80520A1F16302A31C65
:1025B000012A40F2D680782900F0D680732900F0F5
:1025C000D680252900F0D680E2788DF80610A2F199
:1025D0006301E31C012940F2CF80782A00F0CF800C
:1025E000732A00F0CF80252A00F0CF8021798DF862
:1025F0000720A1F16302231D012A40F2C880782937
:1026000000F0C880732900F0C880252900F0C88038
:1026100062798DF80810A2F16301631D012940F26F
:10262000C180782A00F0C180732A00F0C180252A79
:1026300000F0C180A1798DF80920A1F16302A31DEA
:10264000012A40F2BA80782900F0BA80732900F09C
:10265000BA80252900F0BA80E2798DF80A10A2F13B
:102660006301E31D012940F2B380782A00F0B380B2
:10267000732A00F0B380252A00F0B380217A8DF808
:102680000B20A1F16302012A04F1080340F2AB80A0
:10269000782900F0AB80732900F0AB80252900F089
:1026A000AB80627A8DF80C10A2F16301012904F16C
:1026B000090340F2A380782A00F0A380732A00F077
:1026C000A380252A00F0A380A07A8DF80D2004F1C4
:1026D0000A035C1C64282BD015D825281FD063283A
:1026E0007FF447AF99F80000A847207809F1040962
:1026F00000287FF442AF04B0BDE8F04303B0704758
:10270000A847013435E773280BD078287FF431AF20
:10271000D9F8001001A809F10409B04729E7A84732
:1027200027E7D9F8001001A809F10409B84720E704
:10273000D9F8001001A809F10409C04719E71046AB
:10274000012404AA1419002104F80C0C04F80B1C31
:10275000BFE701247820F4E701247320F1E7012486
:10276000EFE708460224ECE702247820E9E7022498
:102770007320E6E70224E4E710460324E1E703249C
:102780007820DEE703247320DBE70324D9E708463B
:102790000424D6E704247820D3E704247320D0E768
:1027A0000424CEE710460524CBE705247820C8E7AB
:1027B00005247320C5E70524C3E708460624C0E7BF
:1027C00006247820BDE706247320BAE70624B8E77C
:1027D00010460724B5E707247820B2E707247320C2
:1027E000AFE70724ADE708460824AAE708247820C5
:1027F000A7E708247320A4E70824A2E710460924C9
:102800009FE7092478209CE70924732099E709248D
:1028100097E700BF98100020080A00200C0A00204B
:10282000591A0008911A0008C11E0008F51A00087C
:102830002DE9F043AC4CAD4E2060AD4B0020154669
:1028400030600122AB4EDFF8B492DFF8B482AA4FB9
:1028500085B01A700C462078002800F0BC8025282E
:1028600040F0BC806278631CA2F1630101298DF8FD
:10287000040040F2CE80782A00F0D580732A00F060
:10288000D580252A00F0D580A1788DF80520A1F10A
:102890006302A31C012A40F2CE80782900F0CE808A
:1028A000732900F0CE80252900F0CE80E2788DF8E3
:1028B0000610A2F16301E31C012940F2C780782AC7
:1028C00000F0C780732A00F0C780252A00F0C78077
:1028D00021798DF80720A1F16302231D012A40F21E
:1028E000C080782900F0C080732900F0C0802529BD
:1028F00000F0C08062798DF80810A2F16301631DB9
:10290000012940F2B980782A00F0B980732A00F0DA
:10291000B980252A00F0B980A1798DF80920A1F1AC
:102920006302A31D012A40F2B280782900F0B28030
:10293000732900F0B280252900F0B280E2798DF889
:102940000A10A2F16301E31D012940F2AB80782A4D
:1029500000F0AB80732A00F0AB80252A00F0AB803A
:10296000217A8DF80B20A1F16302012A04F10803FA
:1029700040F2A380782900F0A380732900F0A3809F
:10298000252900F0A380627A8DF80C10A2F1630172
:10299000012904F1090340F29B80782A00F09B8012
:1029A000732A00F09B80252A00F09B80A07A8DF886
:1029B0000D2004F10A035C1C642825D011D8582886
:1029C00014D063281CD025287FF445AFB047207869
:1029D00000287FF444AF05B0BDE8F083B047013470
:1029E00039E7732807D078287FF435AF296801A824
:1029F0000435C0472FE7296801A80435B8472AE7FE
:102A000028780435B04726E7296801A80435C84767
:102A100021E71046012404AA1419002104F80C0C23
:102A200004F80B1CC7E701247820F4E70124732085
:102A3000F1E70124EFE708460224ECE702247820BE
:102A4000E9E702247320E6E70224E4E710460324C2
:102A5000E1E703247820DEE703247320DBE7032487
:102A6000D9E708460424D6E704247820D3E70424D1
:102A70007320D0E70424CEE710460524CBE70524D5
:102A80007820C8E705247320C5E70524C3E7084676
:102A90000624C0E706247820BDE706247320BAE7A1
:102AA0000624B8E710460724B5E707247820B2E7E4
:102AB00007247320AFE70724ADE708460824AAE7F8
:102AC00008247820A7E708247320A4E70824A2E7B5
:102AD000104609249FE7092478209CE709247320E5
:102AE00099E7092497E700BF98100020080A002002
:102AF0000C0A0020591A0008911A0008F51A00085B
:102B0000C11E0008684620F007018D4679B52A49A4
:102B10002A4B99421BD2DA1C0C1D151B284825F0A4
:102B20000302161D05680423B3420D60C2F3800240
:102B30000DD022B142680823B342226007D01D584D
:102B40001A1D5D5084580833B3428C50F7D11E488B
:102B50001E494FF000028842B8BF40F8042BFFF630
:102B6000FAAF4FF48052C4F2020211684FF4A0632E
:102B700041F48030106004E01068810305D4013B0B
:102B800003D01168013B8803F6D54FF40051C4F21D
:102B900002010A6842F0100008600B6823F003028B
:102BA0000A60086840F002030B6006498847BDE8E8
:102BB00079408546704700BF00000020AC09002026
:102BC00050E70008C50F0008000A00205C1D002027
:102BD000F8B542F61D73C0F60003984743F2B10002
:102BE000C0F60000804740F604064FF4006E43F242
:102BF000B3474FF4406540F6044441F2040144F207
:102C00004440C4F2010E4FF03332C3F24430C4F2F8
:102C10000101C4F20106C3F23337C4F20105C4F264
:102C2000010442F64D63CEF80020C0F60003376081
:102C30002A6022600860984743F20111C0F6000143
:102C4000884743F27D50C0F60000804743F2295286
:102C5000C0F60002904742F6B173C0F600039847F1
:102C600043F63911C0F60001884743F2A160C0F66F
:102C70000000804743F6D932C0F600029047F8BD05
:102C800000B544F20443C4F20003186883B002A9FB
:102C900001F8010D054A0120904705494B6913B120
:102CA0009DF80700984703B000BD00BF3930000809
:102CB0009C10002000B543F60403C4F20103186819
:102CC00083B002A901F8010D054A0020904705498B
:102CD0008B6813B19DF80700984703B000BD00BF93
:102CE000393000089C1000204FF46052C4F20102F9
:102CF00013681B06FCD543F60401C4F20101086009
:102D0000704700BF2DE9F04141F21806C4F20206F7
:102D1000356841F29C03C2F2000343F60C0443F60B
:102D2000100C43F6140E43F6080758609960C4F27D
:102D30000104002245F48048C4F2010CC4F2010EE3
:102D40000C2040F27121C4F201074EF20415C6F8BE
:102D50000080CEF200052060CCF80020CEF80020E4
:102D600039602B6843F020002860216843F2C503D6
:102D700041F0200042F6B5412060C0F60001252058
:102D8000C0F600039847226842F400512160BDE874
:102D9000F08100BFF8B541F21C04C4F202042568BA
:102DA00041F29C02C2F2000245F400364FF4006387
:102DB00010615161C4F201032660186844F20C44AA
:102DC00020F4706119601F68C4F2000447F4407574
:102DD0001D601A6844F2104642F4006018601968D9
:102DE00044F2144521F470471F601A6844F2084009
:102DF0001A601968002241F480471F600C23236089
:102E0000C4F200004FF49C73C4F20006C4F2000543
:102E10004EF204113260CEF200012A6003600868AD
:102E200040F040030B60216843F2C50341F02000ED
:102E300042F681412060C0F600012620C0F6000362
:102E40009847226842F400512160F8BD43F209031B
:102E500010B5C0F60003984741F29C030024C2F26B
:102E6000000342F6055221465C609C601C615C6177
:102E7000DC611C629C62DC625C639C631C645C645D
:102E80004FF4E130C0F60002904742F695534FF4FC
:102E9000E1302146C0F60003984710BD052808B56B
:102EA00006D0054B00EB400003EB8002916008BDAB
:102EB00008460249884708BD9C100020713500086B
:102EC000012808B50AD005D3052802D108460A4BC7
:102ED000984708BD08460949884708BD4FF488420D
:102EE000C4F2000210680006FCD544F20443C4F2A8
:102EF0000003196008BD00BF61350008E92C000817
:102F00000A2838B5044603D0034DE0B2A84738BDBF
:102F10000D20014DA847F8E7E92C000841F2040311
:102F2000C4F202031A684FF4805122F47C1020F09E
:102F3000F0021A601868C4F2020140F4E8121A6044
:102F40000B68084643F080720A6001688B01FCD56B
:102F500041F20403C4F2020318681A4620F0030188
:102F60001960186840F002011960186820F48001A7
:102F70001960186820F4E0611960186840F48061F5
:102F80001960186820F46051196018681860136897
:102F900003F00C010829FAD141F21800C4F2020032
:102FA000026842F4804343F01D010160704700BF96
:102FB0000422C4F2010211684FF4406321F0E06082
:102FC00010601168C4F2010341F08060106019685C
:102FD00040F60C4221F4704018601968C4F20102F6
:102FE00041F44050186019681960136843F00800F4
:102FF0001060704738B940F60C43C4F201031A68F8
:1030000082F008001860704741F2DC1141F2EC12C6
:103010000023C2F20001C2F200020B8013804B8039
:1030200053808B809380CB80D3800B8113814B8125
:1030300053818B81938170471A4A1B4BF0B432F84D
:10304000105033F910602CB21F23A61B2036C8F293
:1030500000033340002B18DB1F2B1CD00135ADB211
:103060001F230E78C8F2000329B20B4000EB401773
:103070000E493C19002B0E5522F810500DDB094962
:1030800021F810300120F0BC7047013B63F01F03B2
:1030900001331F2BE2D10020F5E75A1E62F01F0317
:1030A0000133ECE7EC110020DC110020E4100020DB
:1030B00041F200234EF60852C2F20003CEF20002A3
:1030C0001360704741F200231030C2F2000343F84E
:1030D0002010704741F200238008C2F2000343F839
:1030E0002010704708B543F2C94143F2D5033C2094
:1030F000C0F600010022C0F60003984708BD00BFDB
:103100002DE9F0414C4D2B78012B00F093804B487A
:103110000024047044808480846004744482848227
:10312000846180F8204044848484846280F8304044
:1031300044868486846380F84040A0F84240A0F82A
:103140004440846480F85040A0F85240A0F85440B5
:10315000846580F86040A0F86240A0F8644084660E
:1031600080F87040A0F87240A0F87440846780F83E
:1031700080403349A0F88240A0F88440C0F88840DD
:1031800080F89040A0F89240A0F89440C0F8984091
:1031900088474EF2140641F63F174EF21800CEF261
:1031A0000006C0F20107CEF200004EF210033760B5
:1031B000CEF200030460196841F2180241F00406DF
:1031C0001E601F68C4F2020247F00200186019680E
:1031D00042F6284C41F001061E60D2F800804FF400
:1031E000305348F40068C2F80080C4F2010C472252
:1031F000CCF80020C4F20103802242F6044742F6D4
:103200001C4642F62C4042F620411A60C4F20100EE
:10321000C4F20101C4F20107C4F201064FF6FF72C5
:103220003C60346002600C60186840F00101196075
:1032300001232B70BDE8F081B40A0020100A0020A1
:10324000E53000089D4A9E4B116810B5481C10607F
:103250001C88A2B21AB11988481E84B21C80994CED
:103260002378012B30D0207C964A01283ED094F858
:103270002000944A01284CD094F83000914A01284B
:103280005BD094F840008F4A01286AD094F850002F
:103290008C4A01287DD094F860008A4A012800F009
:1032A000918094F87000874A012800F0A48094F877
:1032B0008000844A012800F0B78094F89000814A89
:1032C000012800F0CB8010BD6288511E88B260805A
:1032D0000028C8D16378012B00F0D980A288A168AA
:1032E00062808847207C774A0128C0D1538A591EC2
:1032F00088B250820028BAD1537C012B00F0C580DF
:10330000A28AA1696282884794F820006D4A012848
:10331000B2D1538C591E88B250840028ACD192F897
:103320002130012B00F0C780A28CA16A62848847FB
:1033300094F83000634A0128A3D1538E591E88B2F5
:10334000508600289DD192F83130012B00F0B080DA
:10335000A28EA16B6286884794F84000594A0128E2
:1033600094D1B2F84230591E88B2A2F84200002827
:103370008CD192F84130012B00F09780B4F84420B2
:10338000A16CA4F84220884794F850004D4A0128C7
:1033900081D1B2F85230591E88B2A2F852000028EA
:1033A0007FF479AF92F85130012B7BD0B4F85420E0
:1033B000A16DA4F85220884794F86000414A012882
:1033C0007FF46FAFB2F86230591E88B2A2F8620083
:1033D00000287FF466AF92F86130012B5FD0B4F81B
:1033E0006420A16EA4F86220884794F87000354AE2
:1033F00001287FF45CAFB2F87230591E88B2A2F88F
:10340000720000287FF453AF92F87130012B43D043
:10341000B4F87420A16FA4F87220884794F8800053
:10342000284A01287FF449AFB2F88230591E88B289
:10343000A2F8820000287FF440AF92F88130012B7F
:1034400027D0B4F88420D4F88810A4F882208847C4
:1034500094F890001B4A01287FF435AFB2F89230FF
:10346000591E88B2A2F8920000287FF42CAF92F87F
:103470009130D4F89810012B08BF82F89000B4F86E
:103480009420A4F89220884710BD107438E720706B
:1034900024E782F88000D4E782F87000B8E782F869
:1034A00060009CE782F8500080E782F8400065E702
:1034B00082F830004CE782F8200035E7B00A00209F
:1034C000B60A0020100A002008B543F24523C0F6D2
:1034D0000003984708BD00BF10B440F61024C2F2A4
:1034E000000404EB00108360019B4270C3604180C4
:1034F000818010BC704700BF092803D8024B00012F
:1035000001221A54704700BF100A002040F6B02371
:10351000C2F200031868704742F62443C4F2010364
:10352000186880B2704700BF08B541F2903244F28B
:1035300015730021C2F20002C0F600031160984723
:1035400044F23570C0F60000804744F27972C0F64C
:103550000002904745F2D133C0F60003984708BDFA
:1035600008B544F69113C0F60003984708BD00BFA4
:1035700041F29033C2F20003186070474FF40063C9
:10358000C4F20103196841F2040221F0704018608E
:103590001968C4F202021960186841F21801186033
:1035A0001368C4F2020143F400401060136842F251
:1035B000044023F4804313600A68C4F2010042F41B
:1035C00000720A6042F2084300210160C4F2010364
:1035D0004FF4000018601A68194642F001001860A4
:1035E0001A6842F0080018600A6842F2084312079D
:1035F000C4F20103F8D41968184641F004021A60B5
:10360000036813F00401FBD142F22C40C4F2010024
:103610000160026842F480130360704741F2943203
:1036200010B5C2F20002642934BF0C46642400EBDA
:10363000400102EB410243F651132146C0F600035C
:103640009480984710BD00BF40F60C43C4F20103BC
:103650001A6822F480501860196841F400621A60F8
:10366000704700BF60B940F60C43C4F2010318680C
:1036700020F0040119601A6822F4005018607047A5
:10368000012800D0704740F60C43C4F201031A68C9
:1036900022F480501860196821F400621A607047A3
:1036A0004FF44062C4F2010211682DE9F04121F4A7
:1036B00070601060146840F6044344F4407515606F
:1036C0001768C4F2010317601A68002022F47061C1
:1036D00019601C6843F2656644F440751D601A6801
:1036E00041F294341A601968C2F2000421F4704562
:1036F0001D601A68054642F4405119601A68012796
:103700001A601968C0F6000621F470221A60196860
:103710004FF0020841F440321A60196819601A68C3
:1037200022F4700119601A6842F4401119601A6895
:103730001A60B047384684F80180A570A5802770CC
:10374000B04784F8078025726581A771BDE8F081D4
:10375000012808B500D908BD164B00EB400003EB6B
:103760004002517015D040F60C40C4F201000368CD
:1037700039B923F004010160026842F40053036088
:1037800008BD43F004010160026822F400530360A5
:1037900008BD61B140F60C40C4F20100016841F47B
:1037A00080520260036823F400610160D3E702489D
:1037B000804708BD9413002049360008642870B57E
:1037C0001FDC6FF06304A042A8BF044664291BDC21
:1037D0006FF06305A942A8BF0D46002C17DDA1B20A
:1037E00000201E4EB047002001461D4CA047002D72
:1037F00018DC20D128462946B04701200221A047E5
:1038000070BD64246429E3DD6425002CE7DC1AD153
:1038100021462046114EB04720460221104CA047B9
:10382000002DE6DDA9B20120B0470E4B0022DA716F
:103830000D49884770BD684281B20120B047012020
:103840000146A04770BD6142002089B2034EB047D7
:10385000034C00200121A047C9E700BF1D36000826
:103860005137000894130020493600084FF4406394
:10387000C4F201031A6822F00F001860196841F0C1
:1038800003021A60186840F0080119601A6822F0F3
:10389000F0001860196841F030021A60186840F0B2
:1038A00080011960704700BF41F21C00C4F20200A1
:1038B0000368F0B443F0020C4FF48567C0F800C011
:1038C0004FF4806240F23F20C4F200073860C4F237
:1038D0000002802040F2044640F21C4510600021A6
:1038E000C4F2000546F6680040F22C44C4F200061B
:1038F0003160C4F2000428604FF4846340F2E7357D
:103900002560C4F20003186840F23C4440F480751E
:103910001D601D684FF48860C4F2000045F48055B6
:10392000C4F200041D60216001600160116841F073
:1039300001031360F0BC704708B543F66D03C0F691
:103940000003984743F6A900C0F60000804708BD71
:10395000642928BF642101EB81014A0091B250B96A
:1039600040F23C43C4F2000319604FF48860C4F293
:103970000000016070470128F7D0704738B540F269
:103980001443C4F20103186842040DD5314C637826
:103990002BB3012B29D040F214415A1CC4F201016F
:1039A0004FF480406270086040F21443C4F2010397
:1039B00019680B040DD5274CE37A5BB1012B2CD091
:1039C00040F214405A1CC4F201004FF40041E2726C
:1039D000016038BD204A9047E37AA081EEE71E4996
:1039E000884763786080012BD5D11B4A9047638854
:1039F000A080C01A81B29629164A28D94FF4A6751C
:103A000005FB01F044F6D353C1F2620383FB00507F
:103A1000C5095378D1801581BDE70F488047A38938
:103A2000E081C11A88B296280A4A0ED94FF4A675C9
:103A300005FB00F144F6D353C1F2620383FB01514D
:103A4000CD09D37A10825582BAE7D37AB8E7537892
:103A5000A1E700BFA01300201935000840F204427E
:103A6000C4F2010211684FF4806341F48040106099
:103A7000C4F201031A6842F480411960704700BF24
:103A800008B510B90B4B984708BD012800D008BDF8
:103A900040F20442C4F2010211684FF4806341F421
:103AA00000401060C4F201031A6842F4004119603A
:103AB00008BD00BF5D3A000880B940F20440C4F27E
:103AC000010002684FF4806322F480410160C4F277
:103AD0000103186820F480421A607047012800D062
:103AE000704740F20442C4F2010211684FF480634F
:103AF00021F400401060C4F201031A6822F400416E
:103B000019607047B0B941F20403C4F201031968A7
:103B100041F20C0221F0706018601968C4F20102D1
:103B20001960186840F000611960136843F4804020
:103B300010607047012800D0704741F20403C4F2BE
:103B40000103196841F20C0221F0704018601968F5
:103B5000C4F201021960186840F00041196013684E
:103B600043F400401060704770B941F20403C4F29E
:103B70000103196821F070621A60186840F0407102
:103B800019601A681A607047012800D0704741F226
:103B90000403C4F201031A6822F070401860196827
:103BA00041F040521A6018681860704740B941F2FD
:103BB0000C01C4F201010B6843F480420A607047B3
:103BC000012800D0704741F20C03C4F201031A68C7
:103BD00042F4004018607047F0B543F6693783B08F
:103BE0000020C0F60007B84743F6AD36002041F28A
:103BF000A0340546C2F20004C0F60006B04701201A
:103C0000257065706580A580E5802581B847012015
:103C1000B0471423A572E572C4F201031868A581A8
:103C200020F47061E5812582658219601E6840F28A
:103C30000C4246F400741C601868C4F2010220F4BF
:103C4000704119601E684FF4816446F4005018609A
:103C50001368C4F2010443F440411160226843F246
:103C6000C50342F44046266043F67D114EF204142B
:103C70002A462820C0F60003CEF20004C0F6000158
:103C80009847206843F65D2240F480712160C0F6B9
:103C90000002904743F6B9230120C0F6000398477D
:103CA00043F2D94443F6CD43072002220095012177
:103CB000C0F60003C0F60004A04743F2F942072013
:103CC000C0F60002904703B0F0BD00BF2DE9F843F5
:103CD0002E4D2C78012C0CD03CD3132C29D0012C48
:103CE0004CD03FD3132C1AD1DFF8B480284F294E83
:103CF00029E00020DFF89C90C847DFF8A88000206A
:103D0000254FC04700210846244E7970B047012056
:103D1000C8470120C04700230120FB72B04701348F
:103D2000E4B2312C2C7002D9184A00201070BDE882
:103D3000F8830020DFF86880C047154F0020B8479F
:103D4000144E0020B0470120C0470120B847012091
:103D5000B047E4E741F20C03C4F201031A6842F4ED
:103D60008040186041F20C01C4F201010B6801347B
:103D700043F400420A602C70BDE8F883DFF8149029
:103D8000DFF82080044F054EC1E700BFB80A0020CD
:103D9000693B0008AD3B0008A0130020813A0008F1
:103DA000B93A0008053B000841F2A03300EB80005F
:103DB000C2F2000303EB40010889704738B5154B88
:103DC0001A78012A00D038BD134C206800B340286F
:103DD000124A14D8116885B20818106000228BB2FC
:103DE00022600F48C021C0182A460E4B9847012078
:103DF00029460D4A904701200C49884738BD15686F
:103E0000403805F14001ABB2206011604025E8E781
:103E1000187038BDDC0A0020E80A0020E40A0020FF
:103E20001C14002015540008C556000889550008C8
:103E300010B541F2B434C2F2000445F28573214654
:103E4000C0F600030320984744F64502C1B2C0F60D
:103E500000022046904745F2AD510320C0F6000114
:103E6000884710BD08B5084B1868052800D008BD64
:103E7000064B1A68511C052A1960F8D100201860F9
:103E8000034B9847F3E700BFD00A0020BC0A00208C
:103E9000ED48000845F64442C4F20002136830B50C
:103EA0008F4C98B28F4D208021882B8889B0194083
:103EB00001F4007081B2002968D1228802F4004127
:103EC0000B425FD1228802F480610B424ED12088E0
:103ED00000F40052134206D045F64440C4F20000FC
:103EE0004DF6FF710160228802F48050034231D107
:103EF000208800F400610B420ED07B4B1A78002A18
:103F000025D102207949884745F64442C4F200028F
:103F10004FF2FF712B881160208800F480721342E9
:103F200013D045F64443C4F2000345F648404FF62B
:103F3000FF61C4F2000019600268100432D46C4BB7
:103F4000002018600720694B984709B030BD6948C8
:103F50008047D9E745F64443C4F200034EF6FF71AB
:103F600019600020614A90472B88C1E7624A45F6F4
:103F70004443C4F200034FF6FF301860516888478D
:103F80002B88A4E75D4880472B889BE75C4B4FF666
:103F9000FF5010601A78511CC8B21870594B9847DE
:103FA0002B888AE7524801684A1C0260016803298D
:103FB000C8D945F64042C4F2000211680907C1D4CD
:103FC00015685149ADB24FF4B8440D60C4F2000415
:103FD000256845F60444ADB20095C4F20004256896
:103FE00045F60844ADB20195C4F20004256845F6D3
:103FF0000C44ADB20295C4F20004256845F61044A5
:10400000ADB20395C4F20004256845F61444ADB280
:104010000495C4F20004256845F61844ADB2059530
:10402000C4F20004256845F61C44ADB20695C4F2FE
:1040300000042468A4B207940C6844F001040C60E6
:104040000C68A4B214600C6824F001040C600968C8
:1040500089B21160196845F644424905C4F200026C
:10406000F8D54FF6FF33136000994FF4B8438AB286
:10407000C4F200031A60019945F604438AB2C4F2FF
:1040800000031A60029945F608438AB2C4F200039D
:104090001A60039945F60C438AB2C4F200031A6011
:1040A000049945F610438AB2C4F200031A600599D8
:1040B00045F614438AB2C4F200031A60069945F625
:1040C00018438AB2C4F200031A60079945F61C43EC
:1040D0008AB2C4F2000300211A60016032E700BF17
:1040E000F4130020501C0020D40A0020C145000811
:1040F000C80A0020F14300085C000020BD570008FA
:10410000C40A0020653E0008C00A0020034B987ACC
:1041100010B1034905220A60704700BF2C1C002023
:10412000D00A002040F6D023C2F2000304221A6015
:10413000704700BF034B1A78202A01D10020187065
:10414000704700BFCC0A0020704700BF212810B57F
:10415000034603D0202811D0022010BD0F4A136857
:10416000187800F07F012129F6D10D49126800244A
:104170002046916154828847204610BD074A116845
:10418000087800F07F01212903D0064A022013702D
:1041900010BD044C04492370E8E700BF4C1C00200C
:1041A000E1410008CC0A0020F9410008074B1968DA
:1041B0000A7802F07F03212B01D0022070470228E9
:1041C00001D02228F9D10020704700BF4C1C0020EC
:1041D00009B1022070470128FBD80846704700BF8C
:1041E00008B103487047034B082219680A827047D8
:1041F000D80000204C1C002008B103487047034B36
:10420000082219680A827047D80000204C1C002040
:1042100008B5064B1968CA78042A05D8044B03EB85
:10422000C201044A904708BD002008BD4C1C002074
:10423000B8000020DD4D000808B540F2540144F6F6
:10424000DD53C2F20001C0F60003984708BD00BF6D
:1042500008B540F2B00144F6DD53C2F20001C0F6E9
:104260000003984708BD00BF41F64C424EF2FC33B4
:10427000C0F60003C2F200021068D9792DE9F047B8
:10428000002445F2DD4541728472C472C0F6000517
:10429000204645F2F146A847C0F6000620464FF4F6
:1042A000007145F20955B047C0F6000510212046BF
:1042B00045F25D6AA847C0F6000A4021204645F253
:1042C0003968D047C0F600088021204645F2D15712
:1042D000C047C0F600072046B84740F25C02C2F271
:1042E000000245F2E56992F82C10C0F6000920465C
:1042F000C84745F2AD53C0F6000320469847012059
:104300002146B0470120C021C04745F2495701204E
:104310002021A847C0F6000701202146B847022007
:104320004FF4C061B04702204FF48071C0470220B3
:104330002146B84702202021A84703202146B04744
:1043400003204FF48871D04703204021C847032041
:104350004FF44051B84721460320A84745F2B92100
:104360002046C0F60001884740F6D020C2F2000087
:1043700001220260BDE8F08744F6C91310B5C0F60B
:104380000003984741F64C40C2F200000268002446
:1043900044F2B5319472C0F60001884745F2597372
:1043A000C0F60003984740F6D020C2F20000046037
:1043B00010BD00BF38B544F629030120C0F6000344
:1043C000984745F6444545F6404341F65042C4F20D
:1043D000000300214FF4E0540120C4F20005C2F2B2
:1043E0000002186019600846296014801C6038BDFE
:1043F000F0B5002183B045F640434FF4B842019137
:10440000C4F20003C4F20002186814686049A5B23F
:1044100045F604460D60C4F20006376845F60842CA
:10442000BCB24C60C4F20002156845F60C46AFB24F
:104430008F60C4F20006346845F61042A5B2CD6024
:10444000C4F20002166845F61447B4B20C61C4F217
:1044500000073D6845F61842AEB24E61C4F2000254
:10446000176845F61C45BCB28C61C4F200052E6885
:1044700082B24FF6FE7442F480620440B7B244F454
:10448000806542F0010645F64440CF61C4F2000069
:104490001A601E601D60026845F644435205C4F26E
:1044A0000003F8D54FF6FF30186008684FF4B842A3
:1044B00080B2C4F200021060486845F6044280B23F
:1044C000C4F200021060886845F6084280B2C4F267
:1044D00000021060C86845F60C4280B2C4F20002C7
:1044E0001060086945F6104280B2C4F20002106004
:1044F000486945F6144280B2C4F20002106088692F
:1045000045F6184280B2C4F200021060C86945F650
:10451000404245F61C41C4F2000280B2C4F20001E0
:1045200044F481640860146010684FF4E04184B280
:1045300044F004001060C4F2000108684EF6105404
:1045400001900868CEF2000420F0030040F0010062
:104550000860206840F0040020601868C0040FD58F
:104560004EF6FF70186010684FF6F7730340136043
:10457000019A0A60216821F00400206003B0F0BDB8
:10458000044B9847226822F004012160F6E700BF3F
:10459000FC1300200D4A000810B545F64044C4F253
:1045A000000423684FF6FB721A4044F259702260EF
:1045B000C0F6000080474FF43F41216010BD00BFAE
:1045C00010B52B4C072818BF20702378052B19D85D
:1045D000DFE803F01B222A2F3A036078411ECAB29B
:1045E0006270637883B945F64042C4F200021068F5
:1045F0004FF6EF71014011601D4A1E4906201070F0
:104600000B6010BD0621217010BD1A4A11680029E7
:1046100028D00520207010BD174A9047154B042163
:1046200001202170186010BD0223032063702070E8
:1046300010BD6278511ECBB2637060780028E3D160
:104640000B4904220A7010BD45F64043C4F2000332
:10465000186882B242F0100119600A200523237005
:10466000607010BD044B98470622227010BD00BF39
:10467000F8130020D80A00209945000840F214439E
:10468000C4F201034FF480221A60704770B48AB3F9
:10469000561EF2B2531C5E00030FB21E0024092BFB
:1046A000C2F3400228D937330B7002230001B34212
:1046B0004C701FD052B1020F092A13D93732CA5495
:1046C000CA1802330001B342547013D0050F092DEC
:1046D00015D83035CD540001020FCD180233092A08
:1046E0006C70EBD83032CA54CA1802330001B3429E
:1046F0005470EBD170BC704730330B70D5E7373551
:10470000CD54E8E708B543F69563C0F60003984733
:1047100008BD00BF41F20403C4F201031A6822F489
:1047200070001860196841F400121A601868186067
:10473000704700BF41F20402C4F20202116841F264
:104740001C0321F480001060C4F202031A6842F4D2
:1047500000011960704700BF054B987A18B90549E8
:1047600001220A607047034B05201860704700BFA4
:104770002C1C0020D00A002040F2144238B5C4F2AC
:1047800001024FF480214FF480631160C4F20103F1
:10479000186840F2044420F480251D60C4F201042E
:1047A00022684FF4816122F480202060C4F201016C
:1047B0000C6840F20C4544F480220A60C4F2010502
:1047C000296843F2D50421F4802028601D6844F252
:1047D000057145F480259020C0F600010022C0F646
:1047E00000041D60A0474FF46143CEF200031A6835
:1047F000E82042F48011196044F27D61C0F60001A6
:104800000022A0474EF20410CEF2000002684FF4DE
:10481000826342F480610160C4F20103186840F4CD
:1048200080221A6038BD00BF41F20C03C4F20103BC
:104830001A6818B942F400501860704722F4005109
:10484000196070472DE9F043894683B00646002978
:1048500045D00378DFF8908001F1FF32214F0DF150
:104860000701052002F001058DF80730B847D8F898
:10487000001011B19DF80700884701244C452ED245
:104880007DB1335D05200DF107018DF80730B84784
:10489000D8F8002012B19DF80700904701344C452C
:1048A0001DD2651C345D0DF1070105208DF8074010
:1048B000B847D8F8001011B19DF807008847735D1C
:1048C0000DF1070105208DF80730B847D8F8002012
:1048D00012B19DF8070090476C1C4C45E1D303B022
:1048E000BDE8F083393000089013002070B5204CEB
:1048F0002378012B23D01F4D2B68B3F5006F2CD0EC
:104900001D4A11688B422FD01AD898B2CE1A1B4A72
:10491000402E16601BD9403E403316602B60402667
:10492000174B012518183246C021164B25709847A1
:1049300028463146144A904728461449884770BD96
:10494000C3F500660D4A402E166098B2E3D8F11800
:1049500029600025B6B21560E2E707490020096822
:10496000286009B10346D1E70020207070BD00BF68
:10497000DC0A0020E40A0020E00A0020E80A002007
:104980001C14002015540008C5560008895500085D
:104990000A4B10B419684A1CB2F5006F0CD2084BD0
:1049A000084C19684A1CB2F5006F60541A6001D1B6
:1049B0000020186010BC7047FEE700BFE80A002026
:1049C000E00A00201C14002038B54FF2E8724FF2C4
:1049D000F073C1F6FF72C1F6FF7310681A684FF2E8
:1049E000EC71C1F6FF7180180C6807D004490822E9
:1049F000044DA847204604490422A84738BD00BFFB
:104A0000020000208D4600081200002030BF7047D1
:104A100008B538B1064B186801688847054A106820
:104A20000A3008BD034B012219680A8208BD00BF85
:104A3000481C00204C1C002008B538B1064B1868F3
:104A400081688847054A10680C3008BD034B012275
:104A500019680A8208BD00BF481C00204C1C0020B9
:104A600008B500283BD0234B234800211A68018059
:104A7000137813F07F0312D1537A03F02002D1B2DE
:104A800059BB027803F04003D9B211B342F00103DD
:104A900003701A4801680A699047174808BD012B3E
:104AA00016D0022B13D1517901F00F02930003F1BC
:104AB000804202F5B84311F0800F196814D101F457
:104AC0004052B2F5805FE4D101210170E1E7084670
:104AD00008BD22F001020270DBE70222D2E7054B9B
:104AE000022219680A8208BD01F03003102BD0D1D0
:104AF000EAE700BF4C1C00201C1C0020481C0020C2
:104B00002DE9F041274E3468238A277A23B9042FF0
:104B10002AD0A58A042703E0A58AAB42FAD9022746
:104B20009D4228BF1D46A169284688471E4A8046E7
:104B3000002090472A4601461C4B4046984729468C
:104B400000201B4A9047208A618A431B23826D18EC
:104B50001848194B658230224FF440513468028066
:104B600019802772BDE8F081144A1078012806D018
:104B7000104910270F8007272772BDE8F08145F6FE
:104B80005040C4F20000006843F2020180B2C2F259
:104B90000001411848000749036030200880137065
:104BA000DFE700BF4C1C00208556000815540008A4
:104BB000C5560008541C0020521C0020EC0A00209E
:104BC00010B50B4B0B4A18685178C378994201D243
:104BD000022010BD8278002AFAD18488002CF7D1F7
:104BE0008372054801684B689847204610BD00BF96
:104BF0004C1C0020E0000020481C002038B5104A62
:104C0000104C116823688A695879D97890472368CD
:104C1000997A09B9022038BD0028FBD118790028FB
:104C2000F8D19D78002DF5D1074A1368D9688847D7
:104C3000236828465979DA78D9721A7338BD00BFCB
:104C4000241C00204C1C0020481C002038B5354B8B
:104C50001B68187810F07F0003D0022806D00220CD
:104C600038BD597A21F020025A7238BD5A88002A7C
:104C7000F6D119790029F3D15A7922F08000810008
:104C800001F18044150604F5B84456BF2468256830
:104C900004F44055244C48BF05F030052478A04268
:104CA000DDD2002DDBD09B7A002BD8D002F0800221
:104CB000D3B273B101F1804101F5B842136803F03A
:104CC0003001102921D0194801684A699047002015
:104CD00038BD01F1804101F5B844226802F4405327
:104CE000B3F5805FEFD1C8B9114A124B92F82C107E
:104CF000984720684BF68F71014081F4405242F48E
:104D0000004343F080002060DDE7C4B220460A4A39
:104D1000904720463021094B9847D4E708498847F7
:104D2000E7E700BF4C1C0020E0000020481C0020EA
:104D30005C000020E55600081556000809550008DB
:104D4000F155000838B5224B19684B7923F08002E1
:104D5000900000F180441D0604F5B84456BF246855
:104D6000256804F440551B4C48BF05F030052478F5
:104D7000A24201D3022038BD4A88002AFAD1002D70
:104D8000F8D0897A0029F5D003F0800300F1804043
:104D900000F5B842DBB211687BB148F6BF7008403D
:104DA00080F0100141F4004343F0800010600A4A93
:104DB00011688B699847002038BD4BF68F730B4004
:104DC00083F4805040F4004141F080031360EEE72B
:104DD0004C1C0020E0000020481C0020054B1B68F4
:104DE0005A8A10B108688018704789888A1A1A820E
:104DF000704700BF4C1C002008B50C4B002093F8F6
:104E00002C100B4A90470B480168087A082806D1F5
:104E1000094B4FF480521A80084A10211180B0F1DA
:104E2000090CDCF1000050EB0C0008BD5C00002018
:104E3000E55600084C1C0020521C0020541C002089
:104E4000F8B5334D2C68237A022B07D0042B05D0FC
:104E5000032B08D0052B06D0072B0DD00822227279
:104E60002C4B9847F8BDA169208A11B358B9A48A80
:104E7000002C45D0284A2EE028480168CA6890478F
:104E80002C680822EBE7A68A864228BF06463046F1
:104E90008847638A0746208AF118821B2282618232
:104EA0001F4B00209847324601461E4B3846984714
:104EB000208A0028DBD01C4B00204FF440520146D2
:104EC0001A801A4A9047238AA18A134A30209942AD
:104ED000108015D9C3B92C68062145F650432172BC
:104EE000C4F20003186843F2020381B2C2F2000365
:104EF000C81843000021196030201080227AAEE7E4
:104F00002C6803222272AAE72C6805222272A6E7E7
:104F10004C1C0020F94D0008541C0020241C0020CB
:104F2000A55600088D540008521C0020C5560008E4
:104F3000F0B545F650439E4DC4F200031A682C6844
:104F400043F2040091B2C2F20000227A0E187300FC
:104F5000092A83B01E6844D0B7B2780000F18041BE
:104F600001F5C0463278934F227073786370B08831
:104F7000B847608030892C68B847A080B0892C6819
:104F80000121E0802172002830D06178062900F0EC
:104F9000878000295ED16388002B00F09480864EC4
:104FA000336808461969884703282B6862D01A8A33
:104FB0004FF6FF718A425DD002280CD05AB193F9A6
:104FC00000100029C0F2B58003221A727B4B4FF407
:104FD0004050188001E008201872794B984703B0C0
:104FE000F0BDE088012121720028CED122786678B8
:104FF00012F07F0341D1092E00F00881052E00F048
:10500000BF80032E00F0F080012E3BD1E178012912
:1050100038D1A288002A35D1637A03F02004E0B2A7
:1050200000282FD06749884760BB2C6845F6504060
:10503000C4F20000016843F202038AB2C2F2000324
:10504000D01841000023604A0B60302006211080F8
:105050002172C2E7082948D1207843069FD15B4AD4
:105060000020A261608290472B684FF6FF701A8A79
:105070008242A3D109211972AFE7012B71D0022B13
:1050800000F08D804C4930460A68536998470328E0
:1050900000F0C5802C680028C8D0082121729CE748
:1050A000267873067FF47BAFA278434E012A00F086
:1050B000B080022A5ED0032A7FF472AF3068426A61
:1050C000002ACDD16CE7606820F47F42B2F5003F42
:1050D0007FF465AF237813F07F0040F0A480A388AD
:1050E000002B7FF45CAF3A4ABAE70A297FF457AF46
:1050F000267806F07F02012A7FF451AFA37A002BB5
:105100003FF44DAF6388002B7FF449AF60682A4EAF
:1051100020F47F42B2F5803F7FF442AF32681946F7
:10512000607993699847002840F0B8802C68294A34
:1051300096E7D98801910198824217D88A421E4980
:1051400008D2086890F82C00824280F08F80224AB2
:1051500000201070096891F82C209A821F4B984704
:105160003BE70B2E8ED11E4880475DE70198124920
:105170001882EFE733681A6A002A7FF471AF0FE7ED
:1051800094F90300002888DBA178002985D1A28842
:10519000002A82D1A37A002B3FF448AF7DE7012E8D
:1051A0003FF440AF032E7FF46DAF0E4CA0473BE7BA
:1051B0004C1C00204D570008241C0020521C0020CD
:1051C000F94D00084D4C0008541C0020114A0008FD
:1051D000614A0008394A0008EC0A0020014B000827
:1051E000FD4B0008454D0008E278012A7FF44AAFE4
:1051F000A388002B7FF446AF607A2A4A40F0200152
:1052000013686172DC69A0472C680FE7264CA04741
:105210000AE73268D269002A7FF422AFC0E62C6820
:1052200009212172D9E601282BD002287FF4B7AEDC
:10523000637903F00F02960006F1804000F5B84054
:105240001E0656BF0068066800F44056174848BF5F
:1052500006F0300600788242BFF4A1AE13F0700F62
:105260007FF49DAE002E7FF43EAF98E692FBF0F403
:1052700000FB1422002A7FF46DAF0D4A012010704C
:1052800068E70C4E607933689A69904730B92C68AA
:10529000A07A00287FF427AF617881E629684978F1
:1052A0007EE600BF481C0020C14B0008E000002043
:1052B000EC0A0020241C0020F0B4284B1E78002E9D
:1052C00043D04FF4B842C4F20002146840F60F71A4
:1052D000214041F4004343F0800111600122741E1B
:1052E00045F60443964204F00104C4F200032CD9AD
:1052F0007CB1196840F60F720A4042F4004141F057
:1053000081021A60022245F608439642C4F2000365
:105310001BD91F6842F4004540F60F7445F0800524
:105320003C4045EA0407194641F8047B5F680132B6
:1053300042F4004540F60F7445F080053C402C4394
:1053400001325C600B1D9642E3D845F64C4340F0B9
:105350008000C4F200031860F0BC7047E000002039
:1053600010B5144C23681A7A022A12D0042A10D0DD
:10537000062A04D0082018720F4B984710BD5978A0
:1053800005290BD00D4B18688168884723680820D1
:10539000F1E70B4A90472368187AECE71A7852062F
:1053A000F0D1D878074B9847074801680A6A9047B8
:1053B000E8E700BF4C1C0020F94D0008241C002029
:1053C000014B0008B9520008481C0020704700BF7C
:1053D00010B541F62C4241F64C44C2F20002C2F232
:1053E000000422600224147241F6244040F25C035F
:1053F00041F6484140F28C02C2F20003C2F20000C2
:10540000C2F20001C2F2000203600A60186880471D
:1054100010BD00BF01F1005101F54051531C4A007D
:10542000591030B42FD04578023010F8024C0139B1
:1054300044EA052322F8043B0B46043201F0010143
:10544000023003B359B110F8014C10F8021C0230BD
:1054500041EA042122F8041C0432013B13D010F865
:10546000021C10F8014C41EA042422F8044C447850
:10547000023010F8021C023041EA042122F8041B19
:105480000432023BEBD130BC704700BF01F1005148
:1054900001F5405301325900521030B41CD00B6852
:1054A000013A20F8023B1346023002F001029BB1A0
:1054B00032B151F8042F20F8022C0230013B0BD0FE
:1054C0000C1D4D688968024620F8025C22F8021B18
:1054D000901C211D023BF3D130BC70474FF6F8738E
:1054E00045F650420340C4F200021360704700BF0B
:1054F000800000F1804202F5B842106848F68F1330
:105500000340194311607047800000F1804202F5AA
:10551000B84210B401F01000146848F6BF7380B2AE
:10552000234068B99BB201F0200188B208B183F032
:10553000200343F4004141F08000106010BC70472C
:1055400083F01003EFE700BF800000F1804202F516
:10555000B84210B401F4805014684BF68F7380B2D7
:10556000234068B99BB201F4005188B208B183F4BA
:10557000005343F4004141F08000106010BC7047BC
:1055800083F48053EFE700BF800000F1804202F512
:10559000B840016848F6BF730B4083F0300242F414
:1055A000004141F080030360704700BF800000F1BC
:1055B000804202F5B84001684BF68F730B4083F4CC
:1055C000405242F4004141F080030360704700BF45
:1055D000800000F1804202F5B840016840F60F6398
:1055E0000B4043F4004242F080010160704700BF6D
:1055F000800000F1804303F5B8400268510408D5EB
:10560000016840F60F730B4043F4404242F08001C2
:1056100001607047800000F1804303F5B8431A68C9
:10562000500608D5196840F60F70084040F4004253
:1056300042F0C0011960704745F65043C4F20003C0
:105640001A684FF6FE7392B202EBC00000F10052EE
:1056500002F5405042000B401360704745F650433E
:10566000C4F200031A6843F2040392B202EBC000D2
:10567000C2F20003C3184FF6FE7258000A400260DF
:10568000704700BF45F65043C4F2000319688AB260
:1056900002EBC00000F1005303F540514A001088AE
:1056A000704700BF45F65043C4F200031A6843F246
:1056B000040193B203EBC000C2F200014218510092
:1056C0000888704745F65043C4F200031A6843F255
:1056D000020392B202EBC000C2F20003C3185A00E8
:1056E0001160704745F65043C4F200031A6843F254
:1056F000060392B202EBC000C2F20003C3185B00C3
:105700003E2909D94A09C90601D1501E82B2910227
:1057100041F40040186070474A08C80748BF01328A
:1057200091021960704700BF45F65043C4F2000370
:105730001A6843F2060193B203EBC000C2F2000103
:10574000421851000B689805800D7047C3B2000ADB
:1057500040EA0320704700BF10B441F6504345F6BD
:10576000444445F640424FF43F410020C4F2000457
:10577000C2F20003C4F2000220601980116010BC64
:10578000704700BF70B545F2297300F07F05C0F681
:10579000000328460E46984745F2A5610446C0F628
:1057A00000012846884745F28D430146224630468F
:1057B000C0F600039847204670BD00BF2DE9F04FAA
:1057C000DFF8ACA183B045F6444B0023DFF8A49189
:1057D000624DADF80630C4F2000BD046DBF8000095
:1057E0004FF4B84482B20304AAF8002040F1AB8021
:1057F000B8F80030C4F2000403F00F02900000F18A
:105800008040574E4BF6BF71544F134600F5B840D9
:1058100089F80020002A33D1226890B228802B8892
:1058200003F030023280288800F440532B80226835
:10583000114081F4005181F0200040F4004343F016
:1058400080022260B8F8001001F0100083B2002B33
:1058500049D0226891B2ADF80610BDF8060000F4F8
:1058600000639AB2002A71D1BDF8061008B2002870
:10587000B4DA226840F68F7313402360394938E068
:105880000468A1B2ADF80610BDF8062014B2002CD1
:105890001BDBBDF8061001F0800293B2002B9DD0F7
:1058A00099F8004048F60F73A00000F1804101F51F
:1058B000B8421068013C0340136040F21C03C2F27E
:1058C000000353F82410884788E7016840F68F7278
:1058D0000A40026040F23800013BC2F2000050F87A
:1058E0002340A047D5E7216848F60F730B401E49B7
:1058F0002360884720683A884BF6BF7302F48051D2
:105900008AB203400AB183F48053388800F400510E
:105910008AB20AB183F40053308800F010018AB2D1
:105920000AB183F01003308800F020018AB20AB176
:1059300083F0200343F400404FF4B84140F080026C
:10594000C4F200010A6003B0BDE8F08F206840F6A1
:105950008F72024022600549CBE700BF521C002035
:10596000541C0020414E000861530008314F0008CC
:10597000F4130020281C002040F21053C2F2000350
:10598000186870470EB4F0B59CB021AC4FF40172AA
:1059900054F8046BADF814200290069000F010F952
:1059A000074640F2105000253246C2F2000045F68C
:1059B000E116C0F600060E95139502A94FF6FF7585
:1059C00023460068039707970A96ADF8165001948E
:1059D00000F0F0F91CB0BDE8F04003B0704700BF24
:1059E0000020704780EA010212F0030F40F03A8075
:1059F00010F0030220F0030021F0030150F804CB63
:105A000008BF51F8043B0DD082F003024FEAC202F6
:105A10006FF07F4323FA02F251F8043B4CEA020C88
:105A200043EA0203ACF101329C4501BF22EA0C02B9
:105A300012F0803F50F804CB51F8043BF2D04FEA0B
:105A40000C604FEA1C2C012828BFB0EB036F08BF85
:105A50001B0AF4D003F0FF034FEA1060A0EB030031
:105A6000704700BF10F0030F0AD010F8012B11F897
:105A7000013B012A28BF9A42F4D0A2EB03007047F1
:105A80004DF8045D4DF8044D4FF0010242EA022248
:105A900042EA024201F0030C21F0030150F8044BEA
:105AA00051F8045BBCF1020F26D04BD824F07F4C98
:105AB000BCEB152FA4EB020323EA04030DD113EA78
:105AC000C21308BF51F8045B0AD18CEA040CBCEB8A
:105AD000056F0CD150F8044BE8E74FEA15255CE060
